:100000000C9462000C948A000C948A000C948A0070
:100010000C948A000C948A000C948A000C948A0038
:100020000C948A000C948A000C948A000C948A0028
:100030000C948A000C948A000C948A000C948A0018
:100040000C943F030C948A000C94AF030C94890326
:100050000C948A000C948A000C948A000C948A00F8
:100060000C948A000C948A000000000024002700F1
:100070002A0000000000250028002B0000000000DE
:1000800023002600290004040404040404040202DA
:100090000202020203030303030301020408102007
:1000A0004080010204081020010204081020000012
:1000B0000008000201000003040700000000000027
:1000C0000000530611241FBECFEFD8E0DEBFCDBF26
:1000D00011E0A0E0B1E0ECECF1E102C005900D927E
:1000E000AE33B107D9F721E0AEE3B1E001C01D9214
:1000F000A83EB207E1F710E0C2E6D0E004C02197C5
:10010000FE010E94DE08C136D107C9F70E9426040D
:100110000C94E4080C940000833081F028F48130C2
:1001200099F08230A9F008958730A9F08830C9F09D
:100130008430B1F4809180008F7D03C08091800075
:100140008F7780938000089584B58F7784BD08955C
:1001500084B58F7DFBCF8091B0008F778093B00006
:1001600008958091B0008F7DF9CFCF93DF93282F32
:1001700030E0F901E255FF4F8491F901E656FF4F57
:10018000D491F901EA57FF4FC491CC23A1F081111A
:100190000E948C00EC2FF0E0EE0FFF1FE458FF4FA1
:1001A000A591B491EC91ED2381E090E009F480E019
:1001B000DF91CF91089580E090E0FACF1F93CF9325
:1001C000DF93282F30E0F901E255FF4F8491F901C8
:1001D000E656FF4FD491F901EA57FF4FC491CC2363
:1001E000A9F0162F81110E948C00EC2FF0E0EE0F89
:1001F000FF1FEE58FF4FA591B4918FB7F894EC9183
:10020000111108C0D095DE23DC938FBFDF91CF9111
:100210001F910895DE2BF8CFCF93DF9390E0FC0180
:10022000E656FF4F24918A579F4FFC018491882303
:10023000D1F090E0880F991FFC01E859FF4FA5917C
:10024000B491FC01EE58FF4FC591D49161110EC0DD
:100250009FB7F8948C91E22FE0958E238C932881A0
:10026000E223E8839FBFDF91CF9108958FB7F89481
:10027000EC91E22BEC938FBFF6CF3FB7F8948091CF
:10028000470190914801A0914901B0914A0126B5DA
:10029000A89B05C02F3F19F00196A11DB11D3FBFBE
:1002A000BA2FA92F982F8827BC01CD01620F711D8D
:1002B000811D911D42E0660F771F881F991F4A9587
:1002C000D1F708958F929F92AF92BF92CF92DF9213
:1002D000EF92FF924B015C010E943D016B017C019A
:1002E0000E943D016C197D098E099F09683E73408B
:1002F00081059105A8F321E0821A9108A108B108AF
:1003000088EEC80E83E0D81EE11CF11C8114910414
:10031000A104B10429F7FF90EF90DF90CF90BF9038
:10032000AF909F908F900895AF92BF92CF92DF923F
:10033000EF92FF920F931F93CF93DF936C017B019A
:100340008B01040F151FEB015E01AE18BF08C0172B
:10035000D10759F06991D601ED91FC910190F0819E
:10036000E02DC6010995892B79F7C501DF91CF9161
:100370001F910F91FF90EF90DF90CF90BF90AF90C3
:100380000895FC01538D448D252F30E0842F90E09B
:10039000821B930B541710F0CF9608950197089580
:1003A000FC01918D828D981761F0A28DAE0FBF2F49
:1003B000B11D5D968C91928D9F5F9F73928F90E09F
:1003C00008958FEF9FEF0895FC01918D828D98170E
:1003D00031F0828DE80FF11D858D90E008958FEF4B
:1003E0009FEF0895FC01918D228D892F90E0805C14
:1003F0009F4F821B91098F73992708958BE491E099
:100400000E94F20121E0892B09F420E0822F089557
:1004100080E090E0892B29F00E94FE0181110C946C
:1004200000000895FC01A48DA80FB92FB11DA35A97
:10043000BF4F2C91848D90E001968F739927848F04
:10044000A689B7892C93A089B1898C918370806427
:100450008C93938D848D981306C00288F389E02DC8
:1004600080818F7D80830895EF92FF920F931F9379
:10047000CF93DF93EC0181E0888F9B8D8C8D981357
:100480001AC0E889F989808185FF15C09FB7F89463
:10049000EE89FF896083E889F989808183708064AF
:1004A00080839FBF81E090E0DF91CF911F910F91FA
:1004B000FF90EF900895F62E0B8D10E00F5F1F4F09
:1004C0000F731127E02E8C8D8E110CC00FB607FC18
:1004D000FACFE889F989808185FFF5CFCE010E94A6
:1004E0001202F1CFEB8DEC0FFD2FF11DE35AFF4F00
:1004F000F0829FB7F8940B8FEA89FB898081806234
:10050000CFCFCF93DF93EC01888D8823B9F0AA89F0
:10051000BB89E889F9898C9185FD03C0808186FDBE
:100520000DC00FB607FCF7CF8C9185FFF2CF80810D
:1005300085FFEDCFCE010E941202E9CFDF91CF916E
:1005400008956AE070E080E090E00E94620185E03A
:100550000E94B50021E0892B09F420E0822F089544
:10056000FC0101900020E9F73197AF01481B590BBE
:10057000BC018BE491E00C9494018F929F92AF9216
:10058000BF920F931F93CF93DF93CDB7DEB7A197A1
:100590000FB6F894DEBF0FBECDBF19A2423008F4EB
:1005A0004AE08E010F5D1F4F842E912CB12CA12C9F
:1005B000A50194010E94BC08E62FB901CA01EA30E6
:1005C000F4F4E05DD801EE938D01232B242B252B31
:1005D00079F790E080E0109719F0CD010E94B00209
:1005E000A1960FB6F894DEBF0FBECDBFDF91CF91BD
:1005F0001F910F91BF90AF909F908F900895E95CED
:10060000E1CFCF93DF930E94B002EC0182E191E051
:100610000E94B0028C0F9D1FDF91CF910895CF9261
:10062000DF92EF92FF92CF93DF936C01990FEE0868
:10063000FF08F7FE19C06DE28BE491E00E943402DE
:10064000EC0166277727CB016C197D098E099F097C
:100650004AE00E94BD028C0F9D1FDF91CF91FF9059
:10066000EF90DF90CF9008954AE0C701B601DF9187
:10067000CF91FF90EF90DF90CF900C94BD021F922E
:100680000F920FB60F9211242F933F938F939F9346
:10069000AF93BF938091430190914401A091450194
:1006A000B09146013091420123E0230F2D3758F5D8
:1006B0000196A11DB11D20934201809343019093A7
:1006C0004401A0934501B093460180914701909168
:1006D0004801A0914901B0914A010196A11DB11DA7
:1006E0008093470190934801A0934901B0934A0138
:1006F000BF91AF919F918F913F912F910F900FBE1E
:100700000F901F90189526E8230F0296A11DB11D8A
:10071000D2CF1F920F920FB60F9211242F933F93B7
:100720004F935F936F937F938F939F93AF93BF93F9
:10073000EF93FF938BE491E00E941202FF91EF91FF
:10074000BF91AF919F918F917F916F915F914F91E9
:100750003F912F910F900FBE0F901F9018951F92F1
:100760000F920FB60F9211242F938F939F93EF93B5
:10077000FF93E0915B01F0915C018081E091610168
:10078000F091620182FD1BC09081809164018F5FB6
:100790008F7320916501821741F0E0916401F0E0D0
:1007A000E55BFE4F958F80936401FF91EF919F91E0
:1007B0008F912F910F900FBE0F901F9018958081F1
:1007C000F4CFCF92DF92EF92FF920F931F93E82F17
:1007D000F92F05C0015011092109310961F19081FA
:1007E00096239417B9F305C0015011092109310965
:1007F00011F1908196239413F7CFC12CD12CE12CC9
:10080000F12C0AC08FEFC81AD80AE80AF80A0C15AA
:100810001D052E053F0579F080818623841791F30D
:100820006C2D7D2D8E2D9F2D1F910F91FF90EF90A0
:10083000DF90CF90089560E070E080E090E01F913D
:100840000F91FF90EF90DF90CF900895789484B54A
:10085000826084BD84B5816084BD85B5826085BDBC
:1008600085B5816085BD80916E00816080936E004A
:10087000109281008091810082608093810080913C
:1008800081008160809381008091800081608093ED
:1008900080008091B10084608093B1008091B000AD
:1008A00081608093B00080917A00846080937A00A8
:1008B00080917A00826080937A0080917A008160D2
:1008C00080937A0080917A00806880937A001092F9
:1008D000C100E0915B01F0915C0182E08083E091D6
:1008E0005701F09158011082E0915901F0915A019D
:1008F0008FEC808310926301E0915F01F0916001C1
:1009000086E08083E0915D01F0915E0180818061ED
:100910008083E0915D01F0915E0180818860808339
:10092000E0915D01F0915E01808180688083E091BB
:100930005D01F0915E0180818F7D808361E087E0C1
:100940000E940C0160E086E00E940C0160E085E0FE
:100950000E940C0161E08DE00E940C0161E089E0E1
:100960000E940C0161E088E00E940C019FE0A92E2A
:10097000B12C23E2822E912C30E0232E30E0332E56
:10098000C1E0D0E08BE491E00E94F2011816190654
:100990007CF48BE491E00E94D001813649F461E659
:1009A0008BE491E00E94340282E191E00E94B00267
:1009B00061E089E00E94DE0085E00E94B5007C01D4
:1009C00085E00E94B50021E0892B09F420E081E058
:1009D000EF2809F480E0821719F00E94A102282F65
:1009E0002223F1F060E089E00E94DE0085E191E0E1
:1009F0000E9401036AEF70E080E090E00E946201D3
:100A00008BE191E00E94B00285E391E00E94B00288
:100A100082E191E00E94B002D0934101C093400175
:100A20008091400190914101019709F02AC161E054
:100A300088E00E94DE0060E087E00E94DE00C501E1
:100A40000197F1F761E087E00E94DE00C4010197A1
:100A5000F1F760E087E00E94DE0060E086E00E943F
:100A60000C01E0EAF0E06491ECE8F0E08491E82F1A
:100A7000F0E0EE0FFF1FE458FF4F8591949100E4E2
:100A800012E42FE030E0462F0E94E103611571056A
:100A90008105910529F06F5F7F4F8F4F9F4F9F70AA
:100AA0000E94930720E030E040E05FE30E944A08A4
:100AB0002DEC3CEC48EE51E40E94F2062B013C0187
:100AC000E0903E01F0903F0120E030E048E452E445
:100AD0000E94450887FD37C0C7010E940F0380E2CE
:100AE00091E00E94B00284E291E00E9401038091B3
:100AF0003E0190913F01019690933F0180933E010A
:100B00006AE070E080E090E00E94620160E088E0CE
:100B10000E94DE0085E00E94B500892B09F480CF99
:100B200085E00E94B500892B09F4A5C089E391E016
:100B30000E94010310923F0110923E011092410168
:100B4000109240016DCFC7010E940F038DE191E02B
:100B50000E94B002A3019201C301B2010E94B70832
:100B6000882369F088E291E00E94B00284E391E07A
:100B70000E94B00282E191E00E94B002B8CF2FEF54
:100B80003FEF4FE75FE7C301B2010E94B708811151
:100B90000DC02FEF3FEF4FE75FE7C301B2010E94A7
:100BA000ED0618161CF48CE291E0DECF2FEF3FEF3C
:100BB0004FE75FE4C301B2010E94450818161CF418
:100BC00080E391E0D1CF2FEF3FEF4FE75FECC30120
:100BD000B2010E94ED0687FDF3CF2AE037ED43EA2C
:100BE0005BE3C301B2010E9481062B013C010E941C
:100BF00064076B017C010E9493079B01AC01C30158
:100C0000B2010E9480062B013C014AE0C701B601F7
:100C10000E94BD026EE28BE491E00E94340220E06B
:100C200030E040E251E4C301B2010E944A082B01C6
:100C30003C010E9464076B01F12CE12C4AE0C701E2
:100C4000B6010E94BD02C701B6010E9493079B0135
:100C5000AC01C301B2010E94800620E030E040E216
:100C600051E40E944A080E94640790E080E04AE054
:100C70000E94BD027BCF0E94A102882309F4CCCE42
:100C800055CF6AEF70E080E090E00E94620121148D
:100C9000310409F477CE0E94FE01882309F472CE54
:100CA0000E9400006FCEEBE4F1E01382128288EE26
:100CB00093E0A0E0B0E084839583A683B78384E0CB
:100CC00091E09183808385EC90E09587848784EC24
:100CD00090E09787868780EC90E0918B808B81EC09
:100CE00090E0938B828B82EC90E0958B848B86ECEA
:100CF00090E0978B868B118E128E138E148E089532
:100D00005058BB27AA270E9498060C940B080E94F3
:100D1000FD0738F00E94040820F039F49F3F19F4D1
:100D200026F40C94FA070EF4E095E7FB0C94F40714
:100D3000E92F0E941C0858F3BA176207730784074B
:100D4000950720F079F4A6F50C943E080EF4E09592
:100D50000B2EBA2FA02D0B01B90190010C01CA0175
:100D6000A0011124FF27591B99F0593F50F4503E20
:100D700068F11A16F040A22F232F342F4427585F12
:100D8000F3CF469537952795A795F0405395C9F72A
:100D90007EF41F16BA0B620B730B840BBAF09150E2
:100DA000A1F0FF0FBB1F661F771F881FC2F70EC081
:100DB000BA0F621F731F841F48F487957795679554
:100DC000B795F7959E3F08F0B0CF9395880F08F040
:100DD0009927EE0F9795879508950E94D00708F4FC
:100DE00081E008950E9406070C940B080E940408F5
:100DF00058F00E94FD0740F029F45F3F29F00C9461
:100E0000F40751110C943F080C94FA070E941C0837
:100E100068F39923B1F3552391F3951B550BBB2729
:100E2000AA2762177307840738F09F5F5F4F220F6E
:100E3000331F441FAA1FA9F335D00E2E3AF0E0E865
:100E400032D091505040E695001CCAF72BD0FE2FAF
:100E500029D0660F771F881FBB1F26173707480743
:100E6000AB07B0E809F0BB0B802DBF01FF279358FB
:100E70005F4F3AF09E3F510578F00C94F4070C94C4
:100E80003F085F3FE4F3983ED4F3869577956795E6
:100E9000B795F7959F5FC9F7880F911D9695879530
:100EA00097F90895E1E0660F771F881FBB1F62174F
:100EB00073078407BA0720F0621B730B840BBA0B0D
:100EC000EE1F88F7E09508950E94240888F09F5748
:100ED00098F0B92F9927B751B0F0E1F0660F771F5E
:100EE000881F991F1AF0BA95C9F714C0B13091F054
:100EF0000E943E08B1E008950C943E08672F782FB9
:100F00008827B85F39F0B93FCCF386957795679518
:100F1000B395D9F73EF490958095709561957F4F84
:100F20008F4F9F4F0895E89409C097FB3EF490952A
:100F30008095709561957F4F8F4F9F4F9923A9F0B2
:100F4000F92F96E9BB279395F69587957795679541
:100F5000B795F111F8CFFAF4BB0F11F460FF1BC085
:100F60006F5F7F4F8F4F9F4F16C0882311F096E918
:100F700011C0772321F09EE8872F762F05C06623C6
:100F800071F096E8862F70E060E02AF09A95660F7F
:100F9000771F881FDAF7880F9695879597F9089538
:100FA000990F0008550FAA0BE0E8FEEF161617067A
:100FB000E807F907C0F012161306E407F50798F0E2
:100FC000621B730B840B950B39F40A2661F0232BFB
:100FD000242B252B21F408950A2609F4A140A69577
:100FE0008FEF811D811D089597F99F6780E870E05C
:100FF00060E008959FEF80EC089500240A9416168F
:10100000170618060906089500240A9412161306F6
:10101000140605060895092E0394000C11F4882384
:1010200052F0BB0F40F4BF2B11F460FF04C06F5FA0
:101030007F4F8F4F9F4F089557FD9058440F551F76
:1010400059F05F3F71F04795880F97FB991F61F04A
:101050009F3F79F087950895121613061406551FC1
:10106000F2CF4695F1DF08C0161617061806991F2D
:10107000F1CF86957105610508940895E894BB2722
:1010800066277727CB0197F908950E94D00708F4C7
:101090008FEF08950E945D080C940B080E94FD07D5
:1010A00038F00E94040820F0952311F00C94F40706
:1010B0000C94FA0711240C943F080E941C0870F34A
:1010C000959FC1F3950F50E0551F629FF001729FED
:1010D000BB27F00DB11D639FAA27F00DB11DAA1FFC
:1010E000649F6627B00DA11D661F829F2227B00D49
:1010F000A11D621F739FB00DA11D621F839FA00DD4
:10110000611D221F749F3327A00D611D231F849F23
:10111000600D211D822F762F6A2F11249F5750407A
:101120009AF0F1F088234AF0EE0FFF1FBB1F661FF5
:10113000771F881F91505040A9F79E3F510580F0BE
:101140000C94F4070C943F085F3FE4F3983ED4F30B
:10115000869577956795B795F795E7959F5FC1F762
:10116000FE2B880F911D9695879597F908950E94FB
:10117000D007880B990B0895A1E21A2EAA1BBB1B5E
:10118000FD010DC0AA1FBB1FEE1FFF1FA217B30753
:10119000E407F50720F0A21BB30BE40BF50B661F69
:1011A000771F881F991F1A9469F76095709580952D
:1011B00090959B01AC01BD01CF010895EE0FFF1F7B
:0C11C0000590F491E02D0994F894FFCF05
:1011CC000000000034029401C1018102F201D0013F
:1011DC00E4010D0A00626567696E004E6F2C2000F9
:1011EC002C2020004E412C006E616E00696E660052
:0E11FC006F76660020636D2C00656E64000047
:00000001FF
